:020000040800F2
:1000000050040020D5000008110800082906000847
:1000100000000000000000000000000000000000E0
:10002000000000000000000000000000AD0B000810
:10003000000000000000000085080008BD0C00085A
:10004000E7000008E7000008E7000008E7000008F4
:10005000E7000008E7000008E7000008E7000008E4
:10006000E7000008E7000008E7000008E7000008D4
:10007000E7000008E7000008E70000083D0D000861
:10008000E7000008E700000800000000E7000008A3
:10009000E7000008E7000008E7000008E7000008A4
:1000A000E7000008E7000008E7000008E700000894
:1000B000E700000800000000E70000080000000062
:1000C0000348854600F008F9004800473515000848
:1000D000500400200448804704480047FEE7FEE73C
:1000E000FEE7FEE7FEE7FEE7C10C0008C1000008DE
:1000F00030B50B46014600202022012409E00D46C0
:10010000D5409D4205D31D469540491B2546954047
:1001100040191546521E002DF1DC30BD70B5024667
:100120004A40D50F40004A00ED0740085208002819
:1001300014D0002A12D0C40DD30D41020120C005F5
:100140005202490A520AE41A091812187D349142DF
:1001500001D3641C00E04900002C01DA002070BDCE
:100160000023914201D3891A034340084900002823
:10017000F7D100290AD0914202D10121C90705E037
:10018000914201D2012101E00121C943E005C018DB
:10019000401900F060F870BDC217C10F504010B593
:1001A0004018CA079623002100F05DF810BD4100F9
:1001B00040020122400AD205090E80187F2901DA87
:1001C00000207047962903DC9622511AC8407047D8
:1001D000963988407047F0B51FB40646002082B0BB
:1001E00005464024019100901BE0019922460F46EC
:1001F000304600F083F8049A059B801A994110D389
:1002000010461946224600F016F8361A8F4101971B
:10021000224601200021009F00F00DF838184D41C2
:1002200000902046641E0028DFDC019B00982946D0
:10023000324607B0F0BD10B5202A04DB0146203A53
:100240009140002010BD914020239C1A0346E340BA
:100250001943904010BD002904DA401C490001D127
:1002600040084000704770B40024050C05D11024EC
:10027000000402D1002921D01124050E01D1000271
:100280000834050F01D10001241D850F01D1800024
:10029000A41C002801DB4000641C002908D0202594
:1002A0002E1B0D46F540A14000D0012129430843F3
:1002B00001061B1B000ADB1D02D5002070BC704725
:1002C000DB05181880180029F8DA401C4900F5D120
:1002D00070BC400840007047064C0125064E05E002
:1002E000E36807CC2B430C3C98471034B442F7D357
:1002F000FFF7EAFEC8150008E815000810B5202A27
:1003000004DB0846203AD040002110BD0B46D34004
:10031000D0402024A21A91400843194610BD000085
:1003200010B51448007801280BD10020124908802C
:1003300001201249087041020920C00600F09EF811
:1003400017E00C480078002813D10C4800780128E9
:1003500002D10B4908700CE008480078002808D149
:10036000942005490880012149020920C00600F0B7
:1003700083F810BD38000020020000200400002097
:10038000050000200120014948707047120000203C
:10039000F0B50A4600210023002400BF3DE00125FE
:1003A0008D402B4615681D402C469C4234D1157952
:1003B000012D02D01579022D16D185684F00032634
:1003C000BE40B543856055794E00B54086683543DB
:1003D0008560858801268E40B5438580858896791D
:1003E0008E40B6B23543858005684F000326BE4077
:1003F000B543056015794E00B54006683543056084
:10040000C5684F000326BE40B543C560D5794E0090
:10041000B540C6683543C560491C1029BFD3F0BD3F
:10042000F0B5002300244D07EE0E1546B5402B46CF
:10043000CD10AE0005462035AD594E07F70E0F26FC
:10044000BE40B543CE10B60007462037BD51CD1093
:10045000AE003D46AD591D432C46CD10AD003E4685
:100460007451F0BD02460020138A0B40002B01D0CE
:10047000012000E0002070470185704781617047CE
:1004800010B5002440210448FFF7ECFF002800D1FC
:100490000124204610BD00000004004810B50024CF
:1004A00020210448FFF7DEFF002800D10124204668
:1004B00010BD00000004004810B500F065F80149C7
:1004C000086010BD1C00002070B500F05DF81749F1
:1004D00008600846006816490968401A1349086010
:1004E00008460068002819DD08460068FFF754FE3A
:1004F00005461049FFF712FE0446FFF758FE0B4968
:100500000860084600680C49884203DD01200B4959
:10051000087009E000200949087005E0002003493F
:10052000086001200549087070BD0000200000200F
:100530001C0000200000FA43881300002500002062
:100540001CB50121480400F0E1F9012000030090EE
:1005500003216846417101210171002181716946C1
:100560000920C006FFF714FF0120C00200900321FC
:1005700068464171002101718171C171694609208C
:10058000C006FFF705FF1CBD70B50121C902092097
:10059000C006FFF773FF012109030920C006FFF71A
:1005A0006BFF002400BF0121C9020920C006FFF72C
:1005B00059FF0028F7D1012000F04AFF00251AE07A
:1005C000012109030920C006FFF758FF640001213B
:1005D00009030920C006FFF74FFF0121C9020920C6
:1005E000C006FFF73FFF002800D0641C012000F088
:1005F0002FFF681CC5B2182DE2DB01210903092079
:10060000C006FFF73BFF0120C0054440012000F079
:100610001FFF012109030920C006FFF72DFF01205C
:1006200000F016FF204670BD00BFFEE71CB501219B
:10063000880400F06BF903216846417100210171C3
:100640006020009069460248FFF7A2FE1CBD000032
:100650000004004810B5FFF713FF01281BD15248D2
:100660000078012817D0002407E0022000F0CEFE19
:10067000601CC4B20A2C00DB03E0FFF701FF012875
:10068000F3D000BF0A2C58DBFFF7FAFE012854D143
:100690004549087051E045480078012803D1FFF72B
:1006A000EFFE012849D0FFF7EBFE012845D03E4878
:1006B0000078012829D100203B4908703B49087087
:1006C0003B480088642820DA3948008800281CDD6F
:1006D00000203749088001203649087036480078E4
:1006E000052812DC00200870334908703348407830
:1006F000012803D102203149487006E02F48407894
:10070000022802D101202D4948702B480078062884
:1007100013DD002028490870264908702748007812
:10072000002803D101202549087006E023480078FD
:10073000012802D1002021490870FFF7AFFE0128EF
:100740001BD119480078012817D0002407E00220A7
:1007500000F05CFE601CC4B20A2C00DB03E0FFF773
:100760009DFE0128F3D000BF0A2C1BDBFFF796FE8D
:10077000012817D10C49087014E00C4800780128B2
:1007800003D1FFF78BFE01280CD0FFF779FE01287B
:1007900008D005480078012804D1002002490870DB
:1007A0000249087010BD0000100000200F0000205A
:1007B0000600002011000020080000201200002088
:1007C0001CB503200002009001216846017103213D
:1007D0004171002181710121C17169460920C00662
:1007E000FFF7D6FD0F200003009069460748FFF78A
:1007F000CFFD032109020920C006FFF73FFE0F21AC
:1008000009030248FFF73AFE1CBD0000000400483F
:100810007047000000218278002A27D0184A03235D
:100820001B02D21803789B109B00D15802789207C4
:10083000D30EFF229A400B46934319464278920703
:10084000120E03789B07DB0E9A4011430C4A0323D8
:100850001B02D21803789B109B00D1500278D3065C
:10086000DB0E01229A40064B1A6007E00278D3069D
:10087000DB0E01229A40024B80331A607047000061
:1008800000E100E07047000010B50A4840780128F8
:100890000DD1C1030920C006FFF7F0FD0020064975
:1008A0000870012189030548FFF7E8FD00E000BF5B
:1008B00010BD0000120000203A0000200004004893
:1008C0001CB50120C003009001216846017103217D
:1008D0004171002181710121C17169460920C00661
:1008E000FFF756FD0121C9030920C006FFF7C4FD2B
:1008F00010200090002168460171C17169460248CC
:10090000FFF746FD1CBD000000040048002905D08B
:10091000054A52690243044B5A6104E0024A526993
:100920008243014B5A61704700100240002905D0F4
:10093000054AD2690243044BDA6104E0024AD269F3
:100940008243014BDA61704700100240FEB5044655
:1009500000250026002001900090002750484068A4
:100960000C2108400546002D04D0042D05D0082D8B
:1009700028D105E04B48206027E04A48206024E069
:10098000474840680F2189040840064644484068AB
:100990000121090408400190B00C861C0198002830
:1009A00003D14148704320600BE03D48C06A000716
:1009B000000F401C00903B480099FFF799FB7043E3
:1009C000206002E03748206000BF00BF3448406824
:1009D000F021084005462D093448475D2068F8405D
:1009E00060602F48406807210902084005462D0A2B
:1009F0002E48475D6068F840A0602948006BFF21E1
:100A000001310840884202D02948E0600DE02448C6
:100A10004068012189030840884203D0A06840084B
:100A2000E06002E0A0688008E0601D48006B4021A3
:100A30000840402802D01F48206102E00120C00386
:100A400020611748006B10210840102802D015487B
:100A5000606101E0206860611148006B8007800FD1
:100A6000002802D1A068A06119E00D48006B800742
:100A7000800F012802D12068A06110E00848006BB7
:100A80008007800F022802D18003A06107E004489C
:100A9000006B8007800F032801D10248A061FEBDD2
:100AA0000010024000127A0000093D003B000020C7
:100AB000809FD50012800000014600BFF020084052
:100AC00000110A23584302460807000F8018C0B2DD
:100AD0007047000070B506460C4600251348406874
:100AE000134908400546FF2000042840000CE07030
:100AF0001F2000022840000A6070A806800EA07027
:100B0000072040032840400B2070002E0DD1E078D4
:100B1000FFF7D2FFE0706078FFF7CEFF6070A0783B
:100B2000FFF7CAFFA0702078207070BD0028004039
:100B30003FFFFF0070B506460C46002512480068CE
:100B40001249084005463F2000042840000C207050
:100B50007F2000022840000A60706806400EA070E6
:100B6000012080052840000CE070002E0BD1207879
:100B7000FFF7A2FF20706078FFF79EFF6070A078FB
:100B8000FFF79AFFA07070BD002800407F7F7F00B4
:100B900010B504490120FFF7CDFF03490120FFF7FD
:100BA00099FF10BD30000020340000207047000085
:100BB0000CB5002001900090314800680121090423
:100BC00008432F49086000BF2D48006801214904EF
:100BD000084000900198401C01900098002804D122
:100BE0000521090201988842EED1254800680121BB
:100BF00049040840002802D00120009001E00020B4
:100C000000900098012839D111201E4908601C4825
:100C100040681B494860084640684860084640688C
:100C20003F21090488431649486008464068052169
:100C30000904084312494860084600680121090672
:100C400008430F49086000BF0D48006801214906AC
:100C500008400028F8D00A48406880088000084909
:100C6000486008464068022108430549486000BFC3
:100C7000034840680C2108400828F9D10CBD000049
:100C8000001002400020024010B500F019F800F0FA
:100C9000ABFBFFF7CBFCFFF775FB00F0A7F9FF21DB
:100CA000E031054800F004F9FFF74AFCFFF708FEC1
:100CB000FFF786FD10BD00000F2700007047000001
:100CC00010B51B480068012108431949086008460F
:100CD00040681849084016494860084600681649A7
:100CE00008401349086008460068012189048843C8
:100CF0000F490860084640683F21090488430C49B1
:100D000048600846C06A00090001C8620846006BD6
:100D1000FF2154318843064908630846406B400868
:100D20004000486300208860FFF742FF10BD0000CC
:100D3000001002400CB8FFF8FFFFF6FE10B50121CD
:100D4000880700F0EBF800287ED00121880700F02A
:100D5000D3F849480078002812D148480078012883
:100D60000ED147480088401C454908800846008845
:100D7000322805DB012040490870002040490880E6
:100D800040480078012804D13F480078401C3E4983
:100D9000087010213D48FFF765FB002813D13C483F
:100DA0000078092809DB3A4800780B2805DC012087
:100DB0003849087000203649087035480078401CD2
:100DC0003349087018E010213048FFF74BFB012829
:100DD00012D12F4800780C2809DD00202C4908701A
:100DE0002C490870012149032848FFF747FB284890
:100DF0000078401C264908702648007801281AD13E
:100E000025480078401C24490870084600780528C9
:100E100005D1012149031D48FFF72EFB0BE01E48B9
:100E200000780A2807D1012149031848FFF726FB5B
:100E300000201949087019484078022806D118483E
:100E40000088401C164900E014E00880154800782E
:100E500001280FD114480078142806D10020124927
:100E60000870124908700F4908700F480078401C3C
:100E70000D49087010BD00000F0000201000002078
:100E80000600002011000020080000200004004897
:100E900009000020380000200A0000201200002075
:100EA0000C000020050000200E000020040000209F
:100EB0007FB504460D4601210846FFF737FD029431
:100EC0006846858000218181C18001A901208007B9
:100ED00000F042F801221146900700F032F80F218D
:100EE00068460170012141708170FFF793FC012178
:100EF000880700F005F87FBDCA43028270470000F2
:100F0000002904D0028801231A43028003E00288EA
:100F1000014B1A4002807047FEFF000030B50246C8
:100F2000002000230024158A0D402B4695890D4092
:100F30002C46002B03D0002C01D0012000E0002023
:100F400030BD002A03D083890B43838102E083896B
:100F50008B4383817047000000220288154B984222
:100F600006D001239B07984202D0134B984203D12D
:100F7000124B1A404B881A43114B984203D0114B25
:100F80001A400B891A4302804B68C3620B880385A1
:100F9000084B984208D00C4B984205D00B4B984216
:100FA00002D00B4B984201D18B7A038601238382B6
:100FB00070470000002C0140000400408FFF00003B
:100FC00000100040FFFC00000040014000440140D0
:100FD00000480140002904D0026801231A4302603E
:100FE00003E00268520852000260704700B589B001
:100FF00001214804FFF78AFC01214804FFF796FC11
:10100000012202210920C006FFF70AFA012203216A
:101010000920C006FFF704FA0C200790022108A857
:101020000170002181700121C1700321417007A965
:101030000920C006FFF7ACF9E12040020190002032
:1010400002900390049006900C20059001A904489A
:1010500000F012F801210248FFF7BCFF09B000BD03
:101060000044004002460020D3690B40002B01D011
:10107000012000E000207047F0B589B005460E461B
:1010800000240020089000BF00BF286840084000EE
:1010900028606C6803210903204688430446B06831
:1010A00004436C602C682F480440F1687068084362
:1010B0003169084304432C60AC68032109022046CF
:1010C0008843044670690443AC606846FFF73EFC01
:1010D0002548854202D10698089001E002980890C0
:1010E00028680121C9030840002809D0326851004E
:1010F0001923089A5A431046FEF7FAFF074608E0FC
:10110000326891001923089A5A431046FEF7F0FFFF
:10111000074664213846FEF7EBFF040120096421ED
:101120004843381A079028680121C903084000285D
:101130000AD00799C900084632306421FEF7D8FF6B
:101140004007400F044309E007990901084632307F
:101150006421FEF7CDFF0007000F0443AC8109B006
:10116000F0BD0000F3E9FFFF00380140CA05D20DD1
:10117000028570470FB410B503A9044B044A0298C6
:1011800000F018F810BC08BC04B01847111500088E
:101190004C00002002E008C8121F08C1002AFAD142
:1011A00070477047002001E001C1121F002AFBD1E7
:1011B00070470000FFB58FB00F460446002606E0DA
:1011C00025280AD0129A11999047641C761C207821
:1011D0000028F5D1304613B0F0BD00250121814A29
:1011E000009500E00543641C23780846203B9840A6
:1011F0001042F7D120782E2815D1042005436078BD
:10120000641C2A280AD101CF641C00900BE00099CD
:101210000A22514330394018641C0090207801465E
:1012200030390929F3D920786C280ED004DC4C28F9
:1012300013D06A2812D104E074280ED07A280DD178
:101240000BE001204005054307E001210905627814
:101250000D43824201D16D18641C641C20786928FA
:1012600043D006DC0028B5D063280BD0642804D115
:101270003BE073280FD075285DD0129A11999047E2
:10128000761CADE03878694608720020487202A8E2
:101290000190012003E0386801900020C0433F1D09
:1012A00069070CD5002500E06D1C00998D420FDA0E
:1012B0008542F9DB0199495D0029F5D108E0002557
:1012C00000E06D1C8542FCDB0199495D0029F8D1E5
:1012D000761907E0019801990078491C0191129A4A
:1012E000119990476D1EF5D27AE0002001900A21F5
:1012F0006802400F0E91022809D001CFC1170029C2
:101300000ADA0A460021404291412D2207E0FF1DE2
:10131000FF08FF0003CFF2E72A0504D52B226B4616
:101320001A72012203E0EA070ED02022F7E70C929E
:101330000BAA0B9218E00A200E9000216802400FC1
:101340000191022802D001CF0022F0E7FF1DFF0823
:10135000FF0003CFF8E7019B0E9AFEF73CFF0B9BC3
:101360005B1E30320B931A7002460A43F3D10B987E
:1013700003A9081A20300190680701D401200090C9
:1013800000990198814203DD08460199401A00E066
:1013900000200025009006E002A8129A405D1199F5
:1013A00090476D1C761C0C988542F5DB04E0129A80
:1013B000302011999047761C0099481E0090002912
:1013C000F5DC08E00B980B990078491C0B91129AF8
:1013D00011999047761C0199481E01900029F1DC73
:1013E000641CF4E609280100074800690421084349
:1013F000054908610846006902210843024908615D
:101400002F2048617047000000E000E07D21C90006
:10141000414308B20D490969012211430B4A116188
:1014200007E000BF0949096901221204114000299F
:10143000F8D00146421E10B20029F2D103490969D1
:1014400049084900014A11617047000000E000E0CE
:101450000D490969012211430B4A116107E000BFE0
:10146000094909690122120411400029F8D00146F6
:10147000421E10B20029F2D1034909694908490006
:10148000014A11617047000000E000E010B50CA0B7
:10149000FFF770FE0B480078012803D10AA0FFF780
:1014A00069FE04E00D4801880DA0FFF763FE1148B6
:1014B000016811A0FFF75EFE01A0FFF75BFE10BD03
:1014C0000A0D0000050000200A0DD5FDD4DABBF19D
:1014D000C8A1544453CAFDBEDD0A0D00020000201D
:1014E0000A0D20544453D6B5203D202564200A0D12
:1014F00000000000200000200A0D20B5B1C7B0D6C2
:10150000D8C1BF203D20256C6420670A0D00000073
:1015100070B504460D46E1B20548FFF727FE00BF4F
:1015200040210348FFF79EFD0028F9D0204670BDFA
:1015300000440040FFF7A8FB0C48FFF767FFFEF7E9
:10154000BBFF0B48FFF716FE0EE0FFF783F8FEF730
:10155000BBFFFFF71DFBFFF797F9FEF7E1FE322017
:10156000FFF754FFFFF792FFEFE70000B80B000012
:10157000741500080A0D20202A2A2A2A2A2A2A2A33
:101580002A2A2A2A2A2A2A2A2A2A2A2A2A2A2A20C5
:101590005254432048617264776172652043616CE4
:1015A000656E646172204578616D706C65202A2AD1
:1015B0002A2A2A2A2A2A2A2A2A2A2A2A2A2A2A2A8B
:1015C0002A2A2A2A2A0A0D00E8150008000000200D
:1015D0005000000094110008381600085000002048
:1015E00000040000A411000800000000000000003A
:1015F00000000000000000000000000000000000EB
:1016000000000000000000000000000000000000DA
:1016100000000000000000000000000000000000CA
:1016200000000000000000010203040102030406A0
:0816300007080900000000009A
:04000005080000C12E
:00000001FF
